{
  "_format": "hh-sol-artifact-1",
  "contractName": "MultiSender",
  "sourceName": "contracts/MultiSender.sol",
  "abi": [
    {
      "inputs": [
        {
          "internalType": "address",
          "name": "_mailbox",
          "type": "address"
        },
        {
          "internalType": "address",
          "name": "_solver",
          "type": "address"
        },
        {
          "internalType": "bytes32",
          "name": "_remoteRecipient",
          "type": "bytes32"
        }
      ],
      "stateMutability": "nonpayable",
      "type": "constructor"
    },
    {
      "inputs": [],
      "name": "ECDSAInvalidSignature",
      "type": "error"
    },
    {
      "inputs": [
        {
          "internalType": "uint256",
          "name": "length",
          "type": "uint256"
        }
      ],
      "name": "ECDSAInvalidSignatureLength",
      "type": "error"
    },
    {
      "inputs": [
        {
          "internalType": "bytes32",
          "name": "s",
          "type": "bytes32"
        }
      ],
      "name": "ECDSAInvalidSignatureS",
      "type": "error"
    },
    {
      "inputs": [],
      "name": "mailbox",
      "outputs": [
        {
          "internalType": "contract IMailbox",
          "name": "",
          "type": "address"
        }
      ],
      "stateMutability": "view",
      "type": "function"
    },
    {
      "inputs": [
        {
          "internalType": "bytes",
          "name": "data",
          "type": "bytes"
        },
        {
          "internalType": "bytes",
          "name": "signature",
          "type": "bytes"
        }
      ],
      "name": "multiSend",
      "outputs": [],
      "stateMutability": "nonpayable",
      "type": "function"
    },
    {
      "inputs": [],
      "name": "remoteRecipient",
      "outputs": [
        {
          "internalType": "bytes32",
          "name": "",
          "type": "bytes32"
        }
      ],
      "stateMutability": "view",
      "type": "function"
    },
    {
      "inputs": [],
      "name": "solver",
      "outputs": [
        {
          "internalType": "address",
          "name": "",
          "type": "address"
        }
      ],
      "stateMutability": "view",
      "type": "function"
    }
  ],
  "bytecode": "0x608060405234801561000f575f5ffd5b506040516112e73803806112e783398181016040528101906100319190610150565b825f5f6101000a81548173ffffffffffffffffffffffffffffffffffffffff021916908373ffffffffffffffffffffffffffffffffffffffff1602179055508160015f6101000a81548173ffffffffffffffffffffffffffffffffffffffff021916908373ffffffffffffffffffffffffffffffffffffffff160217905550806002819055505050506101a0565b5f5ffd5b5f73ffffffffffffffffffffffffffffffffffffffff82169050919050565b5f6100ec826100c3565b9050919050565b6100fc816100e2565b8114610106575f5ffd5b50565b5f81519050610117816100f3565b92915050565b5f819050919050565b61012f8161011d565b8114610139575f5ffd5b50565b5f8151905061014a81610126565b92915050565b5f5f5f60608486031215610167576101666100bf565b5b5f61017486828701610109565b935050602061018586828701610109565b92505060406101968682870161013c565b9150509250925092565b61113a806101ad5f395ff3fe608060405234801561000f575f5ffd5b506004361061004a575f3560e01c806349a7a26d1461004e578063659543081461006c578063d5438eae14610088578063ed9db5ef146100a6575b5f5ffd5b6100566100c4565b6040516100639190610681565b60405180910390f35b6100866004803603810190610081919061070c565b6100e9565b005b61009061031d565b60405161009d91906107e5565b60405180910390f35b6100ae610341565b6040516100bb9190610816565b60405180910390f35b60015f9054906101000a900473ffffffffffffffffffffffffffffffffffffffff1681565b5f84846040516100fa92919061086b565b604051809103902090505f61010e82610347565b90505f61015e8286868080601f0160208091040260200160405190810160405280939291908181526020018383808284375f81840152601f19601f8201169050808301925050505050505061037a565b905060015f9054906101000a900473ffffffffffffffffffffffffffffffffffffffff1673ffffffffffffffffffffffffffffffffffffffff168173ffffffffffffffffffffffffffffffffffffffff16146101ef576040517f08c379a00000000000000000000000000000000000000000000000000000000081526004016101e6906108dd565b60405180910390fd5b5f87878101906101ff9190610d2c565b90505f5f90505b8151811015610312575f82828151811061022357610222610d73565b5b602002602001015190505f815f01518260200151836040015160405160200161024e93929190610f1d565b60405160208183030381529060405290505f5f9054906101000a900473ffffffffffffffffffffffffffffffffffffffff1673ffffffffffffffffffffffffffffffffffffffff1663fa31de018360600151600254846040518463ffffffff1660e01b81526004016102c293929190610fcf565b6020604051808303815f875af11580156102de573d5f5f3e3d5ffd5b505050506040513d601f19601f820116820180604052508101906103029190611035565b5050508080600101915050610206565b505050505050505050565b5f5f9054906101000a900473ffffffffffffffffffffffffffffffffffffffff1681565b60025481565b5f7f19457468657265756d205369676e6564204d6573736167653a0a3332000000005f5281601c52603c5f209050919050565b5f5f5f5f61038886866103a4565b92509250925061039882826103f9565b82935050505092915050565b5f5f5f60418451036103e4575f5f5f602087015192506040870151915060608701515f1a90506103d68882858561055b565b9550955095505050506103f2565b5f600285515f1b9250925092505b9250925092565b5f600381111561040c5761040b611060565b5b82600381111561041f5761041e611060565b5b0315610557576001600381111561043957610438611060565b5b82600381111561044c5761044b611060565b5b03610483576040517ff645eedf00000000000000000000000000000000000000000000000000000000815260040160405180910390fd5b6002600381111561049757610496611060565b5b8260038111156104aa576104a9611060565b5b036104ee57805f1c6040517ffce698f70000000000000000000000000000000000000000000000000000000081526004016104e5919061108d565b60405180910390fd5b60038081111561050157610500611060565b5b82600381111561051457610513611060565b5b0361055657806040517fd78bce0c00000000000000000000000000000000000000000000000000000000815260040161054d9190610816565b60405180910390fd5b5b5050565b5f5f5f7f7fffffffffffffffffffffffffffffff5d576e7357a4501ddfe92f46681b20a0845f1c1115610597575f600385925092509250610638565b5f6001888888886040515f81526020016040526040516105ba94939291906110c1565b6020604051602081039080840390855afa1580156105da573d5f5f3e3d5ffd5b5050506020604051035190505f73ffffffffffffffffffffffffffffffffffffffff168173ffffffffffffffffffffffffffffffffffffffff160361062b575f60015f5f1b93509350935050610638565b805f5f5f1b935093509350505b9450945094915050565b5f73ffffffffffffffffffffffffffffffffffffffff82169050919050565b5f61066b82610642565b9050919050565b61067b81610661565b82525050565b5f6020820190506106945f830184610672565b92915050565b5f604051905090565b5f5ffd5b5f5ffd5b5f5ffd5b5f5ffd5b5f5ffd5b5f5f83601f8401126106cc576106cb6106ab565b5b8235905067ffffffffffffffff8111156106e9576106e86106af565b5b602083019150836001820283011115610705576107046106b3565b5b9250929050565b5f5f5f5f60408587031215610724576107236106a3565b5b5f85013567ffffffffffffffff811115610741576107406106a7565b5b61074d878288016106b7565b9450945050602085013567ffffffffffffffff8111156107705761076f6106a7565b5b61077c878288016106b7565b925092505092959194509250565b5f819050919050565b5f6107ad6107a86107a384610642565b61078a565b610642565b9050919050565b5f6107be82610793565b9050919050565b5f6107cf826107b4565b9050919050565b6107df816107c5565b82525050565b5f6020820190506107f85f8301846107d6565b92915050565b5f819050919050565b610810816107fe565b82525050565b5f6020820190506108295f830184610807565b92915050565b5f81905092915050565b828183375f83830152505050565b5f610852838561082f565b935061085f838584610839565b82840190509392505050565b5f610877828486610847565b91508190509392505050565b5f82825260208201905092915050565b7f496e76616c6964207369676e61747572652066726f6d20736f6c7665720000005f82015250565b5f6108c7601d83610883565b91506108d282610893565b602082019050919050565b5f6020820190508181035f8301526108f4816108bb565b9050919050565b5f601f19601f8301169050919050565b7f4e487b71000000000000000000000000000000000000000000000000000000005f52604160045260245ffd5b610941826108fb565b810181811067ffffffffffffffff821117156109605761095f61090b565b5b80604052505050565b5f61097261069a565b905061097e8282610938565b919050565b5f67ffffffffffffffff82111561099d5761099c61090b565b5b602082029050602081019050919050565b5f5ffd5b5f5ffd5b5f67ffffffffffffffff8211156109d0576109cf61090b565b5b602082029050602081019050919050565b6109ea81610661565b81146109f4575f5ffd5b50565b5f81359050610a05816109e1565b92915050565b5f610a1d610a18846109b6565b610969565b90508083825260208201905060208402830185811115610a4057610a3f6106b3565b5b835b81811015610a695780610a5588826109f7565b845260208401935050602081019050610a42565b5050509392505050565b5f82601f830112610a8757610a866106ab565b5b8135610a97848260208601610a0b565b91505092915050565b5f67ffffffffffffffff821115610aba57610ab961090b565b5b602082029050602081019050919050565b5f819050919050565b610add81610acb565b8114610ae7575f5ffd5b50565b5f81359050610af881610ad4565b92915050565b5f610b10610b0b84610aa0565b610969565b90508083825260208201905060208402830185811115610b3357610b326106b3565b5b835b81811015610b5c5780610b488882610aea565b845260208401935050602081019050610b35565b5050509392505050565b5f82601f830112610b7a57610b796106ab565b5b8135610b8a848260208601610afe565b91505092915050565b5f63ffffffff82169050919050565b610bab81610b93565b8114610bb5575f5ffd5b50565b5f81359050610bc681610ba2565b92915050565b5f60808284031215610be157610be06109ae565b5b610beb6080610969565b90505f82013567ffffffffffffffff811115610c0a57610c096109b2565b5b610c1684828501610a73565b5f83015250602082013567ffffffffffffffff811115610c3957610c386109b2565b5b610c4584828501610b66565b6020830152506040610c5984828501610aea565b6040830152506060610c6d84828501610bb8565b60608301525092915050565b5f610c8b610c8684610983565b610969565b90508083825260208201905060208402830185811115610cae57610cad6106b3565b5b835b81811015610cf557803567ffffffffffffffff811115610cd357610cd26106ab565b5b808601610ce08982610bcc565b85526020850194505050602081019050610cb0565b5050509392505050565b5f82601f830112610d1357610d126106ab565b5b8135610d23848260208601610c79565b91505092915050565b5f60208284031215610d4157610d406106a3565b5b5f82013567ffffffffffffffff811115610d5e57610d5d6106a7565b5b610d6a84828501610cff565b91505092915050565b7f4e487b71000000000000000000000000000000000000000000000000000000005f52603260045260245ffd5b5f81519050919050565b5f82825260208201905092915050565b5f819050602082019050919050565b610dd281610661565b82525050565b5f610de38383610dc9565b60208301905092915050565b5f602082019050919050565b5f610e0582610da0565b610e0f8185610daa565b9350610e1a83610dba565b805f5b83811015610e4a578151610e318882610dd8565b9750610e3c83610def565b925050600181019050610e1d565b5085935050505092915050565b5f81519050919050565b5f82825260208201905092915050565b5f819050602082019050919050565b610e8981610acb565b82525050565b5f610e9a8383610e80565b60208301905092915050565b5f602082019050919050565b5f610ebc82610e57565b610ec68185610e61565b9350610ed183610e71565b805f5b83811015610f01578151610ee88882610e8f565b9750610ef383610ea6565b925050600181019050610ed4565b5085935050505092915050565b610f1781610acb565b82525050565b5f6060820190508181035f830152610f358186610dfb565b90508181036020830152610f498185610eb2565b9050610f586040830184610f0e565b949350505050565b610f6981610b93565b82525050565b5f81519050919050565b5f82825260208201905092915050565b8281835e5f83830152505050565b5f610fa182610f6f565b610fab8185610f79565b9350610fbb818560208601610f89565b610fc4816108fb565b840191505092915050565b5f606082019050610fe25f830186610f60565b610fef6020830185610807565b81810360408301526110018184610f97565b9050949350505050565b611014816107fe565b811461101e575f5ffd5b50565b5f8151905061102f8161100b565b92915050565b5f6020828403121561104a576110496106a3565b5b5f61105784828501611021565b91505092915050565b7f4e487b71000000000000000000000000000000000000000000000000000000005f52602160045260245ffd5b5f6020820190506110a05f830184610f0e565b92915050565b5f60ff82169050919050565b6110bb816110a6565b82525050565b5f6080820190506110d45f830187610807565b6110e160208301866110b2565b6110ee6040830185610807565b6110fb6060830184610807565b9594505050505056fea26469706673582212207f6a7bd74e710cd2597f1ce4b4f1611072c0709b85fa54b0fbf3c1cfc3eb0c7064736f6c634300081c0033",
  "linkReferences": {},
  "deployedLinkReferences": {}
}